:1000000002075D008F828E83E0540100000070F8CB
:100010002278FFE4F6D8FD0207BBBB010689828A7D
:1000200083E0225002E722BBFE02E32289828A8318
:10003000E49322BB010689828A83F0225002F722D0
:10004000BBFE01F322EF8DF0A4A8F0CF8CF0A42822
:10005000CE8DF0A42EFE22BC000BBE0029EF8DF049
:1000600084FFADF022E4CCF875F008EF2FFFEE33FB
:10007000FEEC33FCEE9DEC984005FCEE9DFE0FD5AA
:10008000F0E9E4CEFD22EDF8F5F0EE8420D21CFE7E
:10009000ADF075F008EF2FFFED33FD4007985006E7
:1000A000D5F0F222C398FD0FD5F0EA22C5F0F8A3EF
:1000B000E028F0C5F0F8E582158270021583E0387B
:1000C000F022EF2BFFEE3AFEED39FDEC38FC22E892
:1000D0008FF0A4CC8BF0A42CFCE98EF0A42CFC8A2D
:1000E000F0EDA42CFCEA8EF0A4CDA8F08BF0A42DAA
:1000F000CC3825F0FDE98FF0A42CCD35F0FCEB8E4B
:10010000F0A4FEA9F0EB8FF0A4CFC5F02ECD39FE00
:10011000E43CFCEAA42DCE35F0FDE43CFC2275F075
:1001200008758200EF2FFFEE33FECD33CDCC33CCFC
:10013000C58233C5829BED9AEC99E58298400CF517
:1001400082EE9BFEED9AFDEC99FC0FD5F0D6E4CE45
:10015000FBE4CDFAE4CCF9A88222B800C1B9005979
:10016000BA002DEC8BF084CFCECDFCE5F0CBF97846
:1001700018EF2FFFEE33FEED33FDEC33FCEB33FBDA
:1001800010D703994004EB99FB0FD8E5E4F9FA2264
:100190007818EF2FFFEE33FEED33FDEC33FCC9335F
:1001A000C910D7059BE99A4007EC9BFCE99AF90F27
:1001B000D8E0E4C9FAE4CCFB2275F010EF2FFFEE93
:1001C00033FEED33FDCC33CCC833C810D7079BECDE
:1001D0009AE899400AED9BFDEC9AFCE899F80FD556
:1001E000F0DAE4CDFBE4CCFAE4C8F922EB9FF5F0B9
:1001F000EA9E42F0E99D42F0E89C45F022E0FCA333
:10020000E0FDA3E0FEA3E0FF22E0F8A3E0F9A3E015
:10021000FAA3E0FB22ECF0A3EDF0A3EEF0A3EFF0E5
:1002200022E0FBA3E0FAA3E0F922EBF0A3EAF0A3BB
:10023000E9F022E493FB740193FA740293F922D05B
:1002400083D082F8E4937012740193700DA3A3938A
:10025000F8740193F5828883E4737402936860EF05
:10026000A3A3A380DFE50C2582F582E50B3583F59A
:1002700083B50B0485820C2210AF0685820CF50B2A
:100280002285820CF50BD2AF22EC8EF0A4CCC5F007
:10029000CCCDF8EFA4CEC5F02DFDE43CFCE8A42EB7
:1002A000C8C5F03DFDE43CFCEFA4FFE5F028FEE40A
:1002B0003DFDE43CFC22E709F608DFFA8046E70949
:1002C000F208DFFA803E88828C83E709F0A3DFFA28
:1002D0008032E309F608DFFA806EE309F208DFFAFC
:1002E000806688828C83E309F0A3DFFA805A8982D2
:1002F0008A83E0A3F608DFFA804E89828A83E0A32E
:10030000F208DFFA804280D280FA80C680D480551D
:1003100080F28029801080A680EA809A80A880DA06
:1003200080E280CA802988848C8589828A83E493CC
:10033000A30586F0A30586DFF5DEF3800B89828AAC
:1003400083E493A3F608DFF9ECFAA9F0EDFB228829
:10035000848C8589828A83E0A30586F0A30586DFE5
:10036000F6DEF480E389828A83E493A3F208DFF95E
:1003700080D688F0EF60010E4E60CD88F0ED24024B
:10038000B4040050C3F582EB2402B4040050B92336
:1003900023458223900306737B007A4679E8120E88
:1003A00052EF4405FD7B007A4679E8120E5E750A2D
:1003B00000E50AC3940A503AAF0AEF75F005A42489
:1003C00080F582E4340EF583AF82AE838E088F0908
:1003D000AE08AF098F828E83120233AE08AF098F49
:1003E000828E83740393FC740493FD120D3F050AFF
:1003F00080BF7B087A007900120CCD7B017A50799E
:1004000003120E52EF4402FD7B017A507903120E63
:100410005E7B017A507913120E52EF4402FD7B018C
:100420007A507913120E5E9043A0E0FFEF4440FF34
:100430009043A0EFF09043C2E0FFEF4410FF9043E1
:10044000C2EFF07B087A0079CCC003C002C0017B08
:10045000007A51792290004F12022AD001D002D0A6
:10046000037F087E00120C3B7B087A0079D4C0031E
:10047000C002C0017B007A51794290004F12022ADB
:10048000D001D002D0037F087E00120C3B7B087A9B
:100490000079DCC003C002C0017B007A5179609012
:1004A000004F12022AD001D002D0037F0A7E001230
:1004B0000C3B9044F47401F0904322E0FFEF4408B9
:1004C000FFEFF09046ECE0FFEFC394055006904636
:1004D00089743AF090480074F1F012065B9048007D
:1004E00074B1F0120BC87B007A4379A0C003C0023C
:1004F000C0017B007A4379B090004F12022AD001EC
:10050000D002D0037F0E7E00120C3B9043B0E0FF80
:10051000EF54FDFF9043B0EFF02290004EE4F090D6
:100520005120E0FFEF5480FFEFF0905122E0FFEF09
:1005300054F0FF90004EEFF090004EE0FFEF440FBC
:10054000FF905122EFF0905123E0FFEF54F0FF9025
:10055000004EEFF090004EE0FF905123EFF09051ED
:1005600024E0FFEF54F0FF90004EEFF090004EE0DB
:10057000FF905124EFF0905120E0FFEF54DFFFEFA8
:10058000F0905120E0FFEF4440FFEFF07F007E004D
:10059000120CA0905120E0FFEF4410FFEFF07F011C
:1005A0007E00120CA0905121E0FF90004EEFF090E1
:1005B0005120E0FFEF54EFFFEFF07F007E00120CC0
:1005C000A090004EE0FFEF5408FF90004EEFF09037
:1005D0005120E0FFEF4410FFEFF07F017E00120C8E
:1005E000A0905120E0FFEF54EFFFEFF090004EE0BD
:1005F000FFEF7098905120E0FFEF54BFFFEFF090B5
:100600005120E0FFEF5480FFEFF0905122E0FFEF28
:1006100054F0FF90004EEFF090004EE0FF9051221A
:10062000EFF0905123E0FFEF54F0FF90004EEFF019
:1006300090004EE0FFEF440FFF905123EFF09051F8
:1006400024E0FFEF54F0FF90004EEFF090004EE0FA
:10065000FFEF440FFF905124EFF0227E007F4A907D
:10066000004EEEF0A3EFF07B007A4079807F2B7E86
:10067000017D197C00120DD89043007402F0904067
:10068000007408F09042007403F07B0C7A01790842
:10069000120E529046A1EFF07B007A4279227D083B
:1006A0007C00120E2B7B007A4279207D517C101247
:1006B0000E2B900050E4F07F197E007D007C0090AE
:1006C000004A12021590004EE0FEA3E0FF8F828EDA
:1006D000831201FDEC4D4E4F604E900050E0FFEF55
:1006E00064036044904225E0FFEF5401FF7E0090D8
:1006F0000050E0FEEE25E0FEEE4FFFEF5403FF90CA
:100700000050EFF07FE07E017D007C00120C009035
:10071000004A1201FD7BFF7AFF79FF78FF1200C2C9
:1007200090004A120215809D7B007A4079047D007A
:100730007C01120E2B9040047407F0904006E4F008
:100740009040087448F0904004E4F0904001740236
:10075000F09043A2E0FFEF4401FFEFF02275930019
:1007600078007583467582E8E04401F0009046EC1D
:10077000E0F99046FAE0FAB903225420B40012B826
:10078000001AEA901FFFF07401901FFEF09046F6E9
:10079000F0901FFEE06005901FFFE0FA90480074A3
:1007A000C0F075810C90000078007920E4F0A3D8A7
:1007B000FCD9FAEA90005BF0020011750B1F750C72
:1007C000FD120398020802020CFAE493A3F8E493E2
:1007D000A34003F68001F208DFF48029E493A3F834
:1007E0005407240CC8C333C4540F4420C8834004A6
:1007F000F456800146F6DFE4800B01020408102065
:100800004080900C6FE47E019360BCA3FF543F30A6
:10081000E509541FFEE493A360010ECF54C025E008
:1008200060A840B8E493A3FAE493A3F8E493A3C8C0
:10083000C582C8CAC583CAF0A3C8C582C8CAC58351
:10084000CADFE9DEE780BEC0E0C0F0C083C082C07E
:1008500085C084C086758600C093759300C0D0752E
:10086000D000C000C001C002C003C004C005C00663
:10087000C007906421E0FFEF70177F63120E1B7DAD
:10088000007F01120A097BFF7A0E796A120AB7808B
:10089000157F00120E1B7D007F01120A097BFF7A73
:1008A0000E796E120AB7D007D006D005D004D00357
:1008B000D002D001D000D0D0D093D086D084D085C3
:1008C000D082D083D0F0D0E0327F287E007D007CC3
:1008D000001209437F03120B057F057E007D007C1B
:1008E000001209437F03120B057F0F7E007D007C01
:1008F000001209437F03120B057F017E007D007CFF
:10090000001209437F02120B057F057E007D007CEB
:10091000001209437F06120B4E7F0E120B4E7F2CE6
:10092000120B4E7F08120B4E7F01120B4E7F0C12E2
:100930000B4E7F03120B4E7F057E007D007C001264
:1009400009432290FFFC1202651202157F007E808F
:100950007D007C00850B83850C82120209D3120175
:10096000EC403090005C1201FD120C00850B838579
:100970000C82C083C0821201FDC3EF9400FFEE948D
:1009800080FEED9400FDEC9400FCD082D083120236
:100990001580B99000521201FD850B83850C8212DF
:1009A00002091200CF120C0090000412026522907E
:1009B0006471E0FFEF54C0FF90004AEFF090004AEE
:1009C000E0FFEF4409FF906471EFF0906491E0FF65
:1009D000EF4401FFEFF07F63120DFB7F63120E0BFC
:1009E0007F00120E1B906481E4F0120DB090004B5A
:1009F000EFF0906491E0FFEF4410FFEFF090004BB8
:100A0000E0FF120D58120DEA2290004AEFF090001C
:100A10004BEDF090004AE0FFEF12023F0A2C000A73
:100A200039010A46020A530300000A5F90004BE0B6
:100A3000FFEF2480FF120B4E2290004BE0FFEF24CB
:100A4000C0FF120B4E2290004BE0FFEF2494FF12E8
:100A50000B4E2290004BE0FFEF24D4FF120B4E22EE
:100A6000900048EFF012051A905120E0FFEF44206B
:100A7000FFEFF0905120E0FFEF54BFFFEFF09051F7
:100A800020E0FFEF54F0FFEFF0905120C083C082D0
:100A9000E0FF900048E0FEEE4410FEEF4EFFD082F3
:100AA000D083EFF07F017E00120CA0905120E0FF78
:100AB000EF54EFFFEFF02290004112022A90004421
:100AC0007401F090004112022112001AFF900045BB
:100AD000EFF0900045E0FFEF602A900045E0FF1244
:100AE0000B92900041120221900044E0FFE92FF99F
:100AF000E43AFA12001AFF900045EFF0900044E04B
:100B000004F080CE2290004EEFF0905120E0FFEFF5
:100B1000549FFFEFF0905120E0FFEF54F0FFEFF013
:100B2000905120C083C082E0FF90004EE0FEEE4472
:100B300010FEEF4EFFD082D083EFF07F017E0012D7
:100B40000CA0905120E0FFEF54EFFFEFF022900057
:100B50004CEFF090004CE0FFEFC4540FFF90004DBD
:100B6000EFF012051A90004DE0FFEF540FFF9000D8
:100B70004DEFF090004DE0FF120B0590004CE0FFB0
:100B8000EF540FFF90004DEFF090004DE0FF120B7F
:100B90000522900046EFF012051A900046E0FFEFA4
:100BA000C4540FFF900047EFF0900047E0FF120A97
:100BB00060900046E0FFEF540FFF900047EFF09089
:100BC0000047E0FF120A60227B0C7A0179CF120EF7
:100BD0005290004AEFF090004AE0FFEF5407FF9078
:100BE000586EEFF090004AE0FFEFC4540FFFEF544F
:0F0BF0000FFF90586FEFF09058767444F0223258
:100C0000EC4D4E700D78FCEF24E950032840FD2296
:100C100000007BF178DA0000EF28FF78FFEE38FE65
:100C2000ED38FDEC38FC50E7EF2BFFEE38FEED38E9
:100C3000FDEC38FC40F22205020304758600EF4EFD
:100C40006027EF60010E75930090004FE0F595A3CB
:100C5000E0F585A3E0F5848B938A838982E0A30580
:100C600086F0A31586DFF6DEF4E4F593F5952241D0
:100C70000067004100660041006500440057016EB6
:100C8000360044005200005DC04100561844005C2C
:0F0C90002EE000004300600000004100680000FB
:100CA000EEFA900056E0F88FF0A4FFAEF0E88AF07C
:100CB000A42EFEE5F03400FDEF24C9FF78FFEE38E6
:100CC000FEED38FDE438FC5003020C0022ACEAAD26
:100CD000A08B938A838982E0F96017A3E0F5EAA3E9
:100CE000E0F5A0A3E060F4FAA3E0F8A3E0F2DAF8FC
:100CF000D9E98DA08CEAE4F59322D2AF9044F4E0D8
:100D0000FFEF54FDFFEFF0120DC57E087F47120D77
:100D100021120D86120D9B7D007F00120A0980FEB4
:100D20002290004AEEF0A3EFF07B027A4479009023
:100D3000004AE0FEA3E0FFAD07AC06120E2D22EC48
:100D40004D6011ED60010C8B938A838982E4F0A3DE
:100D5000DDFCDCFA75930022EF54016004D2AF8011
:100D600002C2AFEF5402FF9044F4E054FD4FF02272
:100D700090004AEFF090004AE0FFEFC43354E0FFE8
:100D8000904480EFF022900067E0FFEF70091209B5
:100D9000AF9000677401F0120E3A22900065E0FFF8
:100DA000EF70091208C99000657401F0120E462216
:100DB0009044F4E0F84402F0E85402FF10AF01223E
:100DC00074014FFF22120E797E0B7FFE120D217FE0
:100DD00007120D70120E72228B938A838982EFF0B4
:100DE000A3EEF0A3EDF075930022906461E0FFEFB5
:100DF00030E407906451E0FF80F02290004CEFF067
:100E000090004CE0FF906401EFF02290004CEFF076
:100E100090004CE0FF906441EFF02290004CEFF026
:100E200090004CE0FF906421EFF0228B938A83893D
:100E300082EDF0A3ECF075930022906471E0FFEF77
:100E40004480FFEFF0227F0C120B4E90006674017D
:100E5000F0228B938A838982E0759300FF228B9323
:100E60008A838982EDF0759300224F6E20004F66D1
:100E700066009044C07401F0229044C87401F022CE
:100E800000510000200051300010005150001000AF
:100E900051C000100051F0001001000010000114BA
:100EA0000008000140000A00014C0002000150004F
:020EB000002020
:00000001FF
